{
  "contractName": "LiarsGame",
  "abi": [
    {
      "inputs": [
        {
          "internalType": "uint256",
          "name": "_joiningTime",
          "type": "uint256"
        }
      ],
      "payable": false,
      "stateMutability": "nonpayable",
      "type": "constructor"
    },
    {
      "constant": true,
      "inputs": [],
      "name": "joiningEnd",
      "outputs": [
        {
          "internalType": "uint256",
          "name": "",
          "type": "uint256"
        }
      ],
      "payable": false,
      "stateMutability": "view",
      "type": "function"
    },
    {
      "constant": true,
      "inputs": [],
      "name": "nonce",
      "outputs": [
        {
          "internalType": "uint256",
          "name": "",
          "type": "uint256"
        }
      ],
      "payable": false,
      "stateMutability": "view",
      "type": "function"
    },
    {
      "constant": false,
      "inputs": [
        {
          "internalType": "uint256",
          "name": "x",
          "type": "uint256"
        }
      ],
      "name": "set",
      "outputs": [],
      "payable": false,
      "stateMutability": "nonpayable",
      "type": "function"
    },
    {
      "constant": true,
      "inputs": [],
      "name": "get",
      "outputs": [
        {
          "internalType": "uint256",
          "name": "",
          "type": "uint256"
        }
      ],
      "payable": false,
      "stateMutability": "view",
      "type": "function"
    },
    {
      "constant": false,
      "inputs": [],
      "name": "joinGame",
      "outputs": [],
      "payable": false,
      "stateMutability": "nonpayable",
      "type": "function"
    },
    {
      "constant": true,
      "inputs": [],
      "name": "showDiceList",
      "outputs": [
        {
          "internalType": "address",
          "name": "",
          "type": "address"
        },
        {
          "internalType": "uint256[]",
          "name": "",
          "type": "uint256[]"
        }
      ],
      "payable": false,
      "stateMutability": "view",
      "type": "function"
    },
    {
      "constant": true,
      "inputs": [],
      "name": "totalDiceList",
      "outputs": [
        {
          "internalType": "uint256[]",
          "name": "",
          "type": "uint256[]"
        }
      ],
      "payable": false,
      "stateMutability": "view",
      "type": "function"
    },
    {
      "constant": false,
      "inputs": [
        {
          "internalType": "uint256",
          "name": "num",
          "type": "uint256"
        },
        {
          "internalType": "uint256",
          "name": "qty",
          "type": "uint256"
        }
      ],
      "name": "bid",
      "outputs": [],
      "payable": false,
      "stateMutability": "nonpayable",
      "type": "function"
    },
    {
      "constant": true,
      "inputs": [],
      "name": "winnerDetails",
      "outputs": [
        {
          "internalType": "address",
          "name": "",
          "type": "address"
        }
      ],
      "payable": false,
      "stateMutability": "view",
      "type": "function"
    },
    {
      "constant": false,
      "inputs": [],
      "name": "challenge",
      "outputs": [
        {
          "internalType": "address",
          "name": "",
          "type": "address"
        }
      ],
      "payable": false,
      "stateMutability": "nonpayable",
      "type": "function"
    },
    {
      "constant": true,
      "inputs": [],
      "name": "getGameData",
      "outputs": [
        {
          "internalType": "uint256",
          "name": "",
          "type": "uint256"
        },
        {
          "internalType": "uint256",
          "name": "",
          "type": "uint256"
        },
        {
          "internalType": "address",
          "name": "",
          "type": "address"
        },
        {
          "internalType": "address",
          "name": "",
          "type": "address"
        }
      ],
      "payable": false,
      "stateMutability": "view",
      "type": "function"
    }
  ],
  "bytecode": "0x60806040526040518060c00160405280600060ff168152602001600060ff168152602001600060ff168152602001600060ff168152602001600060ff168152602001600060ff1681525060009060066200005b9291906200010f565b50600060015560006002556005604051908082528060200260200182016040528015620000975781602001602082028038833980820191505090505b5060039080519060200190620000af92919062000166565b506000600455613039600a55348015620000c857600080fd5b50604051620010f4380380620010f483398181016040526020811015620000ee57600080fd5b81019080805190602001909291905050508042016009819055505062000263565b82805482825590600052602060002090810192821562000153579160200282015b8281111562000152578251829060ff1690559160200191906001019062000130565b5b509050620001629190620001f5565b5090565b828054828255906000526020600020908101928215620001e2579160200282015b82811115620001e15782518260006101000a81548173ffffffffffffffffffffffffffffffffffffffff021916908373ffffffffffffffffffffffffffffffffffffffff1602179055509160200191906001019062000187565b5b509050620001f191906200021d565b5090565b6200021a91905b8082111562000216576000816000905550600101620001fc565b5090565b90565b6200026091905b808211156200025c57600081816101000a81549073ffffffffffffffffffffffffffffffffffffffff02191690555060010162000224565b5090565b90565b610e8180620002736000396000f3fe608060405234801561001057600080fd5b50600436106100a95760003560e01c8063af4e99de11610071578063af4e99de146101af578063affed0e01461023a578063d2ef739814610258578063d4f77b1c146102a2578063e002bc50146102ac578063ed8bddeb1461033e576100a9565b8063598647f8146100ae5780635f267994146100e657806360fe47b1146101455780636d4ce63c14610173578063951cbd8f14610191575b600080fd5b6100e4600480360360408110156100c457600080fd5b810190808035906020019092919080359060200190929190505050610388565b005b6100ee6103ff565b6040518080602001828103825283818151815260200191508051906020019060200280838360005b83811015610131578082015181840152602081019050610116565b505050509050019250505060405180910390f35b6101716004803603602081101561015b57600080fd5b8101908080359060200190929190505050610457565b005b61017b610469565b6040518082815260200191505060405180910390f35b610199610473565b6040518082815260200191505060405180910390f35b6101b7610479565b604051808581526020018481526020018373ffffffffffffffffffffffffffffffffffffffff1673ffffffffffffffffffffffffffffffffffffffff1681526020018273ffffffffffffffffffffffffffffffffffffffff1673ffffffffffffffffffffffffffffffffffffffff16815260200194505050505060405180910390f35b6102426104fe565b6040518082815260200191505060405180910390f35b610260610504565b604051808273ffffffffffffffffffffffffffffffffffffffff1673ffffffffffffffffffffffffffffffffffffffff16815260200191505060405180910390f35b6102aa610915565b005b6102b4610bc6565b604051808373ffffffffffffffffffffffffffffffffffffffff1673ffffffffffffffffffffffffffffffffffffffff16815260200180602001828103825283818151815260200191508051906020019060200280838360005b8381101561032957808201518184015260208101905061030e565b50505050905001935050505060405180910390f35b610346610c70565b604051808273ffffffffffffffffffffffffffffffffffffffff1673ffffffffffffffffffffffffffffffffffffffff16815260200191505060405180910390f35b600060059050828160000181905550818160010181905550338160020160006101000a81548173ffffffffffffffffffffffffffffffffffffffff021916908373ffffffffffffffffffffffffffffffffffffffff160217905550600154600160025401816103f357fe5b06600281905550505050565b6060600080548060200260200160405190810160405280929190818152602001828054801561044d57602002820191906000526020600020905b815481526020019060010190808311610439575b5050505050905090565b60006004819055508060048190555050565b6000600454905090565b60095481565b60008060008060006005905080600001548160010154600560020160009054906101000a900473ffffffffffffffffffffffffffffffffffffffff166003600254815481106104c457fe5b9060005260206000200160009054906101000a900473ffffffffffffffffffffffffffffffffffffffff1694509450945094505090919293565b600a5481565b6000806005905060008160010154600060018460000154038154811061052657fe5b9060005260206000200154106105db576000600860003373ffffffffffffffffffffffffffffffffffffffff1673ffffffffffffffffffffffffffffffffffffffff168152602001908152602001600020905060008160010154111561059757600181600101540381600101819055505b8260020160009054906101000a900473ffffffffffffffffffffffffffffffffffffffff169150600154600160025401816105ce57fe5b0660028190555050610665565b6000600860008460020160009054906101000a900473ffffffffffffffffffffffffffffffffffffffff1673ffffffffffffffffffffffffffffffffffffffff1673ffffffffffffffffffffffffffffffffffffffff168152602001908152602001600020905060008160010154111561066057600181600101540381600101819055505b339150505b6040518060c00160405280600060ff168152602001600060ff168152602001600060ff168152602001600060ff168152602001600060ff168152602001600060ff1681525060009060066106ba929190610d6e565b5060006064905060008090505b60015481101561090b57600060086000600384815481106106e457fe5b9060005260206000200160009054906101000a900473ffffffffffffffffffffffffffffffffffffffff1673ffffffffffffffffffffffffffffffffffffffff1673ffffffffffffffffffffffffffffffffffffffff16815260200190815260200160002090506000816001015411156108f957610760610dc0565b8160010154816020018181525050606082600101546040519080825280602002602001820160405280156107a35781602001602082028038833980820191505090505b50905060008090505b8360010154811015610847576107c0610cd5565b8282815181106107cc57fe5b6020026020010181815250506001600060018484815181106107ea57fe5b602002602001015103815481106107fd57fe5b9060005260206000200154016000600184848151811061081957fe5b6020026020010151038154811061082c57fe5b906000526020600020018190555080806001019150506107ac565b5080826000018190525081600860006003878154811061086357fe5b9060005260206000200160009054906101000a900473ffffffffffffffffffffffffffffffffffffffff1673ffffffffffffffffffffffffffffffffffffffff1673ffffffffffffffffffffffffffffffffffffffff16815260200190815260200160002060008201518160000190805190602001906108e4929190610dda565b506020820151816001015590505050506108fd565b8192505b5080806001019150506106c7565b5081935050505090565b61091d610dc0565b60038160200181815250506060600360405190808252806020026020018201604052801561095a5781602001602082028038833980820191505090505b509050610965610cd5565b8160008151811061097257fe5b602002602001018181525050610986610cd5565b8160018151811061099357fe5b6020026020010181815250506109a7610cd5565b816002815181106109b457fe5b602002602001018181525050600160006001836000815181106109d357fe5b602002602001015103815481106109e657fe5b9060005260206000200154016000600183600081518110610a0357fe5b60200260200101510381548110610a1657fe5b906000526020600020018190555060016000600183600181518110610a3757fe5b60200260200101510381548110610a4a57fe5b9060005260206000200154016000600183600181518110610a6757fe5b60200260200101510381548110610a7a57fe5b906000526020600020018190555060016000600183600281518110610a9b57fe5b60200260200101510381548110610aae57fe5b9060005260206000200154016000600183600281518110610acb57fe5b60200260200101510381548110610ade57fe5b906000526020600020018190555080826000018190525081600860003373ffffffffffffffffffffffffffffffffffffffff1673ffffffffffffffffffffffffffffffffffffffff1681526020019081526020016000206000820151816000019080519060200190610b51929190610dda565b506020820151816001015590505033600360015481548110610b6f57fe5b9060005260206000200160006101000a81548173ffffffffffffffffffffffffffffffffffffffff021916908373ffffffffffffffffffffffffffffffffffffffff16021790555060018054016001819055505050565b600060606000600860003373ffffffffffffffffffffffffffffffffffffffff1673ffffffffffffffffffffffffffffffffffffffff1681526020019081526020016000209050338160000181915080805480602002602001604051908101604052809291908181526020018280548015610c6057602002820191906000526020600020905b815481526020019060010190808311610c4c575b5050505050905092509250509091565b6000806005905080600101546000600183600001540381548110610c9057fe5b906000526020600020015410610ccd578060020160009054906101000a900473ffffffffffffffffffffffffffffffffffffffff16915050610cd2565b339150505b90565b60008060064233600a54604051602001808481526020018373ffffffffffffffffffffffffffffffffffffffff1673ffffffffffffffffffffffffffffffffffffffff1660601b815260140182815260200193505050506040516020818303038152906040528051906020012060001c81610d4c57fe5b069050600181019050600a600081548092919060010191905055508091505090565b828054828255906000526020600020908101928215610daf579160200282015b82811115610dae578251829060ff16905591602001919060010190610d8e565b5b509050610dbc9190610e27565b5090565b604051806040016040528060608152602001600081525090565b828054828255906000526020600020908101928215610e16579160200282015b82811115610e15578251825591602001919060010190610dfa565b5b509050610e239190610e27565b5090565b610e4991905b80821115610e45576000816000905550600101610e2d565b5090565b9056fea265627a7a72315820127e7fa3a3b9976767c681273a8e49396859ddad5dd3fa41998c06e87b96c0e364736f6c63430005100032",
  "source": "pragma solidity ^0.5.0;\n\ncontract LiarsGame {\n/*\n    Liar's dice is a class of dice games for two or more players requiring the ability to deceive and to detect an opponent's deception.\n\nIn \"single hand\" liar's dice games, each player has a set of dice, all players roll once, and the bids relate to the dice each player can see (their hand) plus all the concealed dice (the other players' hands). In \"common hand\" games, there is one set of dice which is passed from player to player. The bids relate to the dice as they are in front of the bidder after selected dice have been re-rolled.\n\n*/\n    //Variable that stores total dice numbers of all users -> used during challenge\n    uint256[] totalDiceQty = [0, 0, 0, 0, 0, 0];\n    uint256 userCount = 0;\n    uint256 currentTurn = 0;\n\n    address[] addrList = new address[](5);\n    struct diceList {\n        uint256[] nums;\n        uint256 size;\n    }\n\n    uint256 storedData = 0;\n\n    function set(uint256 x) public {\n        storedData = 0;\n        storedData = x;\n    }\n\n    struct currentBid {\n        uint256 num;\n        uint256 qty;\n        address addr;\n    }\n\n    currentBid cBid;\n\n    function get() public view returns (uint256) {\n        return storedData;\n    }\n\n    mapping(address => diceList) addressDiceMap;\n\n    uint256 public joiningEnd;\n\n    constructor(uint256 _joiningTime) public {\n        joiningEnd = now + _joiningTime;\n    }\n\n    uint256 public nonce = 12345;\n\n    //random number generator between 1 to 6 -> for dice allocation\n    function random() private returns (uint256) {\n        uint256 randomnumber = uint256(\n            keccak256(abi.encodePacked(now, msg.sender, nonce))\n        ) % 6;\n        randomnumber = randomnumber + 1;\n        nonce++;\n        return randomnumber;\n    }\n\n    /*\n        Players need to join game by calling this function\n    */\n    function joinGame() public {\n        //require(now <= joiningEnd, \"Game Join period ended\");\n        // require(addressDiceMap[msg.sender].length == 0 , \"Player already joined Game\"); ?????/\n        diceList memory initialList;\n\n        // assigning 3 dices for eaxh player at the beginning of game\n        initialList.size = 3;\n        uint256[] memory nums = new uint256[](3);\n        nums[0] = random();\n        nums[1] = random();\n        nums[2] = random();\n\n        totalDiceQty[nums[0] - 1] = totalDiceQty[nums[0] - 1] + 1;\n        totalDiceQty[nums[1] - 1] = totalDiceQty[nums[1] - 1] + 1;\n        totalDiceQty[nums[2] - 1] = totalDiceQty[nums[2] - 1] + 1;\n        initialList.nums = nums;\n        addressDiceMap[msg.sender] = initialList;\n        addrList[userCount] = msg.sender;\n        userCount = userCount + 1;\n    }\n    /*\n        returns list of dices each user is holding to the web app\n    */\n    function showDiceList() public view returns (address, uint256[] memory) {\n        diceList storage dl = addressDiceMap[msg.sender];\n\n        return (msg.sender, dl.nums);\n    }\n\n    /*\n        returns total dices qty of each number \n    */\n    function totalDiceList() public view returns (uint256[] memory) {\n        return (totalDiceQty);\n    }\n\n    /*\n        function to place bid\n    */\n    function bid(uint256 num, uint256 qty) public {\n        currentBid storage cBID = cBid;\n        cBID.num = num;\n        cBID.qty = qty;\n        cBID.addr = msg.sender;\n        currentTurn=(currentTurn+1)%userCount;\n    }\n    /*\n        function that send winner details during challenge\n    */\n    function winnerDetails() public view returns (address) {\n        currentBid storage cBID = cBid;\n        if (totalDiceQty[cBID.num - 1] >= cBID.qty) {\n            return cBID.addr;\n        } else {\n            //remove dice from loser\n            return msg.sender;\n        }\n    }\n    /*\n       function to place challenge\n       find winner\n       remove dice from loser\n\n    */\n    function challenge() public returns (address) {\n        currentBid storage cBID = cBid;\n        \n        address addrs;\n        if (totalDiceQty[cBID.num - 1] >= cBID.qty) {\n            //remove dice from loser\n            diceList storage dl = addressDiceMap[msg.sender];\n            if (dl.size > 0) {\n                dl.size = dl.size - 1;\n            }\n            //rollNewDice();\n            //return winner address\n            addrs = cBID.addr;\n            //If challeger loses -- chance will goto next person\n            currentTurn=(currentTurn+1)%userCount;\n        } else {\n            //remove dice from loser\n            diceList storage dl = addressDiceMap[cBID.addr];\n            if (dl.size > 0) {\n                dl.size = dl.size - 1;\n            }\n            //rollNewDice();\n            //return winner address\n            addrs = msg.sender;\n        }\n        totalDiceQty = [0, 0, 0, 0, 0, 0];\n        uint toDeleteUserIndex=100; //any number above max players\n        for (uint256 i = 0; i < userCount; i++) {\n            diceList storage dl = addressDiceMap[addrList[i]];\n\n            if(dl.size>0){\n            diceList memory initialList;\n            initialList.size = dl.size;\n            uint256[] memory nums = new uint256[](dl.size);\n            for (uint256 j = 0; j < dl.size; j++) {\n                nums[j] = random();\n                totalDiceQty[nums[j] - 1] = totalDiceQty[nums[j] - 1] + 1;\n            }\n            initialList.nums = nums;\n            addressDiceMap[addrList[i]] = initialList;\n            }\n            else{\n                toDeleteUserIndex=i;\n            }\n        }\n        /*\n        if(toDeleteUserIndex!=100){\n            if(currentTurn==toDeleteUserIndex){\n                currentTurn=(currentTurn+1)%(userCount-1);\n               // delete addrList[toDeleteUserIndex];\n            }\n        }\n        */\n        return addrs;\n    }\n    /*\n        function that returns game data to web app continously\n    */\n    function getGameData()\n        public\n        view\n        returns (\n            uint256,\n            uint256,\n            address,\n            address\n        )\n    {\n        currentBid storage cBID = cBid;\n        return (cBID.num, cBID.qty, cBid.addr,addrList[currentTurn]);\n    }\n}\n",
  "sourcePath": "/home/aakash/Desktop/Liars Dice 2018101011 /Liars Dice 2018101011/Liars Dice v2/src/contracts/LiarsGame.sol",
  "compiler": {
    "name": "solc",
    "version": "0.5.16+commit.9c3226ce.Emscripten.clang"
  },
  "schemaVersion": "3.2.3",
  "updatedAt": "2021-01-19T06:26:50.876Z",
  "networkType": "ethereum",
  "devdoc": {
    "methods": {}
  },
  "userdoc": {
    "methods": {}
  }
}